:1000000056C1000075C1000073C1000071C100003D
:100010006FC100006DC100006BC1000069C100002C
:1000200067C1000065C1000063C1000061C100003C
:100030005FC100005DC1000009C5000059C100009A
:1000400057C1000055C1000053C1000051C100005C
:100050000EC500004DC100004BC1000049C10000A9
:1000600047C1000045C1000043C1000041C100007C
:100070003FC100003DC100003BC1000039C100008C
:1000800037C1000035C1000033C1000031C100009C
:100090002FC100002DC100002BC1000029C10000AC
:1000A00027C1000025C1000023C1000021C10000BC
:1000B0001FC100001DC100001BC1000019C10000CC
:1000C00017C1000015C1000013C1000011C10000DC
:1000D0000FC100000DC100000BC1000009C10000EC
:1000E00007C1000005C1000003C1000001C10000FC
:1000F000FFC00000FDC00000FBC00000F9C0000010
:10010000F7C00000F5C00000F3C00000F1C000001F
:10011000EFC00000EDC00000EBC00000E9C000002F
:10012000E7C00000E5C00000E3C00000E1C000003F
:10013000DFC00000DDC00000DBC00000D9C000004F
:10014000D7C00000D5C00000D3C00000D1C000005F
:10015000CFC00000CDC00000CBC00000C9C000006F
:10016000C7C00000C5C00000C3C000000C94AE149E
:10017000BFC00000BDC00000BBC00000B9C000008F
:10018000B7C00000B5C00000B3C00000B1C000009F
:10019000AFC00000ADC00000ABC00000A9C00000AF
:1001A000A7C00000A5C00000A3C00000A1C00000BF
:1001B0009FC000009DC000009BC0000099C00000CF
:1001C00097C0000095C0000093C0000091C00000DF
:1001D0008FC000008DC000008BC0000089C00000EF
:1001E00087C0000085C0000083C0000081C00000FF
:1001F0007FC000000C9421220C94582300000000C2
:1002000006010006020006040006080006100006AB
:100210002000064000068020060120060220060479
:1002200020060820061020062020064020068040D8
:10023000060140060240060440060860060160060A
:100240000260060460060860061060062080060151
:100250008006028006048006088006108006208042
:100260000640800680A00601800602800604800603
:100270000880061080062080064080068059616D47
:10028000614E656B6F01001E974200000200000284
:100290000008000020004B45494F0053555045527F
:1002A000504C4159204A6F79737469636B00112473
:1002B0001FBECFEFCDBFDFE3DEBF00E00CBF11E21A
:1002C000A0E0B0E2E4EDFCE400E00BBF02C0079068
:1002D0000D92AA31B107D9F726E2AAE1B1E201C035
:1002E0001D92AF30B207E1F70E94610F0C946826AF
:1002F00087CE3BB78BBFFB0186913BBF089542E0A1
:10030000992748C08093C00188278093C1018093BA
:10031000C20147E02FD0CB0108953BB748E13FC071
:100320003BB74AE13CC03BB740E239C0EE27FF276C
:1003300019BEDC0143E24093CA0150E02DE90D9063
:100340001D9020933400E89532965A95C1F71124F8
:1003500008953BB78BBFCB0144E221C048E30AC0FC
:1003600049E308C02091CF0127FDFCCF222720932D
:10037000CA0108954093CA0128ED31E0209334006A
:100380003093CB016091C4017091C5018091C60189
:1003900099270895FC014093CA0184910895FC01B6
:1003A0004093CA012DE920933400E89511243BBF06
:1003B00008952F923F924F925F926F927F928F9209
:1003C0009F92AF92BF92CF92DF92EF92FF920F93E4
:1003D0001F93CF93DF931F92CDB7DEB740E150E07C
:1003E00068E070E089EB93E20E94472640E150E02C
:1003F00068E070E089EC93E20E94472685E08983FB
:100400002090082130900921F1016481669570E007
:1004100080E090E00E942C2520E030E040E051E4B4
:100420000E94B8259B01AC0160E074E284E79BE484
:100430000E9496240E94FE248B019C010150110908
:100440002109310901151105F1E02F07310508F0E7
:1004500077C2812C912C540121E02B013C01769430
:100460006794579447947301620131E0C31AD1082D
:10047000E108F108C114D10441E0E406F10490F46C
:10048000440C551CAB014419550957FDDBC22A0128
:10049000662457FC6094762C481459046A047B0443
:1004A00008F49DC22B013C017694679457944794BD
:1004B000769467945794479473016201E1E0CE1AF1
:1004C000D108E108F108C114D104F1E0EF06F1040C
:1004D000A0F4440C551C440C551CAB01441955099F
:1004E00057FD84C22A01662457FC6094762C481478
:1004F00059046A047B0408F46BC22B013C01E3E05D
:100500007694679457944794EA95D1F77301620102
:1005100031E0C31AD108E108F108C114D10441E067
:10052000E406F104B0F4440C551C440C551C440C76
:10053000551CAB014419550957FD7CC22A0166249C
:1005400057FC6094762C481459046A047B0408F420
:1005500038C22B013C0146E0769467945794479447
:100560004A95D1F773016201E1E0CE1AD108E108A2
:10057000F108C114D104F1E0EF06F104C8F400243D
:10058000569447940794569447940794542C402CBF
:10059000AB014419550957FD51C22A01662457FC85
:1005A0006094762C481459046A047B0408F402C24F
:1005B000472E582E692E77247301620131E0C31A49
:1005C000D108E108F108C114D10441E0E406F104C6
:1005D00090F4542C4424AB014419550957FD22C210
:1005E0002A01662457FC6094762C481459046A0446
:1005F0007B0408F4D8C12B013C01FAE0769467949F
:1006000057944794FA95D1F773016201E1E0CE1A4D
:10061000D108E108F108C114D104F1E0EF06F104BA
:1006200098F4542C4424550C550C6419750977FD25
:10063000FDC1CB01AA2797FDA095BA2F8815990572
:10064000AA05BB0508F4ABC1211104C085E089836C
:100650000CE810E2109200081092010810920208B3
:10066000109203081092040881E08093060810920B
:100670000708109220081092210800932608109372
:100680002708898180930008F1016581669570E0F3
:1006900080E090E00E942C2520E030E040E051E432
:1006A0000E94B8259B01AC0160E074E284E79BE402
:1006B0000E9496240E94FE244B015C01F1E08F1AF7
:1006C0009108A108B1088114910421E0A206B104A7
:1006D00008F030C1C12CD12C7601840121E04B01FE
:1006E0005C01B694A794979487942401350131E076
:1006F000431A5108610871084114510441E064062D
:10070000710490F4880C991CAB014819590957FDE4
:1007100081C14A01AA2497FCA094BA2C8C149D0490
:10072000AE04BF0408F434C14B015C01B694A79435
:1007300097948794B694A79497948794240135014D
:10074000E1E04E1A51086108710841145104F1E0CA
:100750006F067104A0F4880C991C880C991CAB01DD
:100760004819590957FD5AC14A01AA2497FCA09477
:10077000BA2C8C149D04AE04BF0408F402C14B01D2
:100780005C01F3E0B694A79497948794FA95D1F717
:100790002401350131E0431A510861087108411400
:1007A000510441E064067104B0F4880C991C880C73
:1007B000991C880C991CAB014819590957FD22C195
:1007C0004A01AA2497FCA094BA2C8C149D04AE0470
:1007D000BF0408F4CFC04B015C0156E0B694A79467
:1007E000979487945A95D1F724013501E1E04E1A88
:1007F00051086108710841145104F1E06F06710459
:10080000C8F4002496948794079496948794079448
:10081000982C802CAB014819590957FDF7C04A01A3
:10082000AA2497FCA094BA2C8C149D04AE04BF0497
:1008300008F499C0872E982EA92EBB2424013501D7
:1008400031E0431A5108610871084114510441E034
:100850006406710490F4982C8824AB014819590956
:1008600057FDC8C04A01AA2497FCA094BA2C8C1446
:100870009D04AE04BF0408F46FC04B015C01AAE004
:10088000B694A79497948794AA95D1F7240135013B
:10089000E1E04E1A51086108710841145104F1E079
:1008A0006F06710498F4982C8824990C990C681997
:1008B000790977FDA3C0CB01AA2797FDA095BA2F90
:1008C0008C159D05AE05BF0508F442C0211104C07A
:1008D00085E089830AE111E41092400810924108F2
:1008E00010924208109243081092440881E08093CD
:1008F0004608109247081092600810926108009311
:100900006608109367088981809340080F90DF91F3
:10091000CF911F910F91FF90EF90DF90CF90BF90FC
:10092000AF909F908F907F906F905F904F903F908F
:100930002F90089520E0CC24CA94DC2C7601CFCEF1
:100940000CE810E220E088248A94982C540185CD8C
:100950008F8189838201C0CF2E8129838201750115
:10096000640121E08ACF2D81298382017501640110
:1009700021E060CF2C81298382017501640121E08F
:100980002ACF2B81298382017501640121E0F7CEF2
:100990002A81298382017501640121E0C5CE8F81FE
:1009A0008983860157CE2E81298386015301420116
:1009B00021E021CE2D81298386015301420121E0CE
:1009C000F7CD2C81298386015301420121E0C1CD5D
:1009D0002B81298386015301420121E08ECD2A819A
:1009E000298386015301420121E05CCD5195419557
:1009F000510978CD51954195510934CF7195619543
:100A0000710959CF519541955109DACE51954195CA
:100A1000510905CF5195419551097BCE519541958D
:100A20005109A2CE519541955109DACD7195619543
:100A30007109FFCD51954195510980CD5195419551
:100A40005109ABCD51954195510921CD1F920F927E
:100A50000FB60F9211248F9380911B218F5F80938B
:100A60001B218F910F900FBE0F901F9018951F9212
:100A70000F920FB60F9211248F9380911A218F5FDE
:100A800080931A218F910F900FBE0F901F90189591
:100A900020EC2093D000000021E22093D000FC0144
:100AA00081918093D300FCCFCF93DF93CDB7DEB796
:100AB000DA95CDBFDEBF8091CC01877F8093CC01DA
:100AC00020E031E0CE010196FC01A90111924150D4
:100AD0005040E1F74AE655E249835A832B833C8331
:100AE000DE011596FE01EF57FF4F20E02D93219375
:100AF0002F5F2734D9F76CEF70E0CADF8091CC010B
:100B000088608093CC0180910010909101108A360A
:100B1000954239F48091041090910510811591400F
:100B200009F0C2DF80EC8093D000000081E2809366
:100B3000D000E0E0F0E181918093D300FCCF6132FE
:100B4000710508F44AC0B3E3A5E33091CF0137FD46
:100B5000FCCFB093CA011092C1011092C201FC01F6
:100B600030E03093C00151915093C4013F5F303267
:100B7000C1F73091CF0137FDFCCF51E0540F3091D8
:100B8000CF0137FDFCCFE0E24E9F9001112420936E
:100B9000C0013093C1011092C201A093CA01EF932A
:100BA000FF930F932F93EBECF1E008ED21E004BFEE
:100BB00020832F910F91FF91EF912091CF0127FD7D
:100BC000FCCF2091CF0127FDFCCF605271098096A8
:100BD0006132710510F0452FB8CF0895E0E0FBE0D9
:100BE00010821182128210A211A287E893E186A3DB
:100BF00097A31682178281E08487089581E080930D
:100C00001F21089510921F2181E00895CF93DF9353
:100C1000CDB7DEB7C054D109CDBFDEBFBE016F5F17
:100C20007F4F0E949E0FCE0101960E94DC15C05C92
:100C3000DF4FCDBFDEBFDF91CF9108952F923F925E
:100C40004F925F926F927F928F929F92AF92BF92DC
:100C5000CF92DF92EF92FF920F931F93CF93DF9388
:100C6000CDB7DEB7CB56D109CDBFDEBF80911F21F6
:100C7000811117C0C559DF4FCDBFDEBFDF91CF91C6
:100C80001F910F91FF90EF90DF90CF90BF90AF90AA
:100C90009F908F907F906F905F904F903F902F909C
:100CA0000895CE0101967C0185E0F70111928A95A5
:100CB000E9F780912421811198C580915B248823D4
:100CC00011F081E88A8380915C24882311F08FE7FA
:100CD0008A8380915E24882311F08FE78983809135
:100CE0005D24882311F081E8898380916124882321
:100CF00009F4D1C681E08B8381E891EC21E451EACB
:100D000041EE31E661E2E1E9BE2EF1EDCF2EA1E543
:100D1000DA2E01EB11EFB1E7A1E371E1A72EF9E8BB
:100D2000FC8779EC7B87E9E4EA87F9EAF98779EED1
:100D30007887E9E6EF83E9E2F9E92F2E79ED372E9E
:100D4000F9E54F2E79EB572EF9EF6F2E79E7772ED5
:100D5000F9E38F2E79E1972EF9E0FE8375E87BA702
:100D6000F5ECFAA775E479A7F5EAF8A775EE7FA385
:100D7000F5E6FEA375E27DA3F5E9FCA375ED7BA383
:100D8000F5E5FAA375EB79A3F5EFF8A375E77F8F87
:100D9000F5E3FE8F75E17D8FFDE8FC8F7DEC7B8FA9
:100DA000FDE4FA8F7DEA798FFDEEF88F7DE67F8B8B
:100DB000FDE2FE8B7DE97D8BFDEDFC8B7DE57B8B84
:100DC000FDEBFA8B7DEF798BFDE7F88B7DE37F8779
:100DD0007DE1FDE0FE87F5E0FD87F3E8AC96FFAF2F
:100DE000AC97F3ECAB96FFAFAB97F3E4AA96FFAFEB
:100DF000AA97F3EAA996FFAFA997F3EEA896FFAFDB
:100E0000A897F3E6A796FFAFA797F3E2A696FFAFE2
:100E1000A697F3E9A596FFAFA597F3EDA496FFAFCC
:100E2000A497F3E5A396FFAFA397F3EBA296FFAFCA
:100E3000A297F3EFA196FFAFA197F3E7A096FFAFBC
:100E4000A097F3E36F96FFAF6F97F3E16E96FFAF56
:100E50006E97FBE86D96FFAF6D97FBEC6C96FFAF5E
:100E60006C97FBE46B96FFAF6B97FBEA6A96FFAF5C
:100E70006A97FBEE6996FFAF6997FBE66896FFAF4E
:100E80006897FBE26796FFAF6797FBE96696FFAF4F
:100E90006697FBED6596FFAF6597FBE56496FFAF40
:100EA0006497FBEB6396FFAF6397FBEF6296FFAF30
:100EB0006297FBE76196FFAF6197FBE36096FFAF38
:100EC0006097FBE12F96FFAF2F97FBE02E96FFAFC9
:100ED0002E97F7E82D96FFAF2D97F7EC2C96FFAFE6
:100EE0002C97F7E42B96FFAF2B97F7EA2A96FFAFE4
:100EF0002A97F7EE2996FFAF2997F7E62896FFAFD6
:100F00002897F7E22796FFAF2797F7E92696FFAFD6
:100F10002697F7ED2596FFAF2597F7E52496FFAFC7
:100F20002497F7EB2396FFAF2397F7EF2296FFAFB7
:100F30002297F7E72196FFAF2197F7E3FFAFF7E19D
:100F4000FEAFFFE8FDAFFFECFCAFFFE4FBAFFFEA55
:100F5000FAAFFFEEF9AFFFE6F8AFFFE2FFABFFE954
:100F6000FEABFFEDFDABFFE5FCABFFEBFBABFFEF3B
:100F7000FAABFFE7F9ABFFE3F8ABFFE1FFA7FFE058
:100F8000FEA7F7E0FDA7F3E0FCA7F0916224FF23A2
:100F900009F4BFC07CA57B83AC968FADAC97AB96B4
:100FA0009FADAB97AA962FADAA97A9965FADA997CB
:100FB000A8964FADA897A7963FADA797A6966FADF9
:100FC000A697A596BFACA597A496CFACA497A396D9
:100FD000DFACA397A2960FADA297A1961FADA197E4
:100FE000A096BFADA0976F96AFAD6F976E96AFAC62
:100FF0006E976D96EFAD6D97EC876C96FFAD6C9725
:10100000FB876B967FAD6B977A876A96EFAD6A9791
:10101000E9876996FFAD6997F88768967FAD68970D
:101020007F836796EFAD679766962FAC6697659658
:101030003FAC659764964FAC649763965FAC6397DB
:1010400062966FAC629761967FAC619760968FAC49
:1010500060972F969FAC2F972E96FFAD2E97FE830D
:101060002D967FAD2D977BA72C96FFAD2C97FAA7D9
:101070002B967FAD2B9779A72A96FFAD2A97F8A7D5
:1010800029967FAD29977FA32896FFAD2897FEA3C9
:1010900027967FAD27977DA32696FFAD2697FCA3C5
:1010A00025967FAD25977BA32496FFAD2497FAA3C1
:1010B00023967FAD239779A32296FFAD2297F8A3BD
:1010C00021967FAD21977F8FFFADFE8F7EAD7D8F07
:1010D000FDADFC8F7CAD7B8FFBADFA8F7AAD798F48
:1010E000F9ADF88F78AD7F8BFFA9FE8B7EA97D8B44
:1010F000FDA9FC8B7CA97B8BFBA9FA8B7AA9798B48
:10110000F9A9F88B78A97F877FA5FEA5FE87FDA5A5
:10111000FD87F0916324FF2341F18D858B838BA59F
:101120009AA529A558A54FA13EA16DA1BCA0CBA011
:10113000DAA009A118A1BF8DAE8DAD8CEC8DEC8726
:10114000FB8DFB87EA8DEA87F98DF987E88DE887C3
:10115000FF89FF83EE892D883C884B885A886988EF
:1011600078888F84972E7E857E8370916424772380
:1011700089F08E818B838C859B852A85598548854E
:101180003F816E2FB22CC32CD42C052D162DB72DDC
:10119000A82DA92C70916524772341F0AB828B2D6B
:1011A0009C2D2D2D502F412F3B2F6A2F709166249F
:1011B000772321F06B83852F942F232F3091672481
:1011C000332311F02B83892F9091682491118B8305
:1011D00080916924882309F414C381E08C8381E819
:1011E00091EC21E451EA41EE31E661E2E1E9BE2E03
:1011F000F1EDCF2EA1E5DA2E01EB11EFB1E7A1E37E
:1012000071E1A72EE9E8EC87F9ECFB8779E47A87AE
:10121000E9EAE987F9EEF88779E67F83E9E2F9E917
:101220002F2E79ED372EF9E54F2E79EB572EF9EF6A
:101230006F2E79E7772EF9E38F2E79E1972EF9E07B
:10124000FE8375E87BA7F5ECFAA775E479A7F5EAC4
:10125000F8A775EE7FA3F5E6FEA375E27DA3F5E999
:10126000FCA375ED7BA3F5E5FAA375EB79A3F5EF88
:10127000F8A375E77F8FF5E3FE8F75E17D8FFDE8BD
:10128000FC8F7DEC7B8FFDE4FA8F7DEA798FFDEE9C
:10129000F88F7DE67F8BFDE2FE8B7DE97D8BFDED9A
:1012A000FC8B7DE57B8BFDEBFA8B7DEF798BFDE78E
:1012B000F88B7DE37F877DE1FDE0FE87F5E0FD872C
:1012C000F3E8AC96FFAFAC97F3ECAB96FFAFAB9700
:1012D000F3E4AA96FFAFAA97F3EAA996FFAFA997FE
:1012E000F3EEA896FFAFA897F3E6A796FFAFA797F0
:1012F000F3E2A696FFAFA697F3E9A596FFAFA597F1
:10130000F3EDA496FFAFA497F3E5A396FFAFA397E1
:10131000F3EBA296FFAFA297F3EFA196FFAFA197D1
:10132000F3E7A096FFAFA097F3E36F96FFAF6F9739
:10133000F3E16E96FFAF6E97FBE86D96FFAF6D978A
:10134000FBEC6C96FFAF6C97FBE46B96FFAF6B9773
:10135000FBEA6A96FFAF6A97FBEE6996FFAF699763
:10136000FBE66896FFAF6897FBE26796FFAF67976B
:10137000FBE96696FFAF6697FBED6596FFAF659755
:10138000FBE56496FFAF6497FBEB6396FFAF639753
:10139000FBEF6296FFAF6297FBE76196FFAF619745
:1013A000FBE36096FFAF6097FBE12F96FFAF2F97AF
:1013B000FBE02E96FFAF2E97F7E82D96FFAF2D9707
:1013C000F7EC2C96FFAF2C97F7E42B96FFAF2B97FB
:1013D000F7EA2A96FFAF2A97F7EE2996FFAF2997EB
:1013E000F7E62896FFAF2897F7E22796FFAF2797F3
:1013F000F7E92696FFAF2697F7ED2596FFAF2597DD
:10140000F7E52496FFAF2497F7EB2396FFAF2397DA
:10141000F7EF2296FFAF2297F7E72196FFAF2197CC
:10142000F7E3FFAFF7E1FEAFFFE8FDAFFFECFCAF86
:10143000FFE4FBAFFFEAFAAFFFEEF9AFFFE6F8AF6C
:10144000FFE2FFABFFE9FEABFFEDFDABFFE5FCAB61
:10145000FFEBFBABFFEFFAABFFE7F9ABFFE3F8AB5A
:10146000FFE1FFA7FFE0FEA7F7E0FDA7F3E0FCA781
:10147000F0916A24FF2309F4BFC07CA57C83AC965D
:101480008FADAC97AB969FADAB97AA962FADAA97B1
:10149000A9965FADA997A8964FADA897A7963FAD1F
:1014A000A797A6966FADA697A596BFACA597A4964D
:1014B000CFACA497A396DFACA397A2960FADA2974B
:1014C000A1961FADA197A096BFADA0976F96AFADA7
:1014D0006F976E96AFAC6E976D96EFAD6D97EC878C
:1014E0006C96FFAD6C97FB876B967FAD6B977A8799
:1014F0006A96EFAD6A97E9876996FFAD6997F887B5
:1015000068967FAD68977F836796EFAD679766961D
:101510002FAC669765963FAC659764964FAC649721
:1015200063965FAC639762966FAC629761967FAC8F
:10153000619760968FAC60972F969FAC2F972E96F1
:10154000FFAD2E97FE832D967FAD2D977BA72C9612
:10155000FFAD2C97FAA72B967FAD2B9779A72A96EC
:10156000FFAD2A97F8A729967FAD29977FA32896E4
:10157000FFAD2897FEA327967FAD27977DA32696DC
:10158000FFAD2697FCA325967FAD25977BA32496D8
:10159000FFAD2497FAA323967FAD239779A32296D4
:1015A000FFAD2297F8A321967FAD21977F8FFFADE6
:1015B000FE8F7EAD7D8FFDADFC8F7CAD7B8FFBAD57
:1015C000FA8F7AAD798FF9ADF88F78AD7F8BFFA95F
:1015D000FE8B7EA97D8BFDA9FC8B7CA97B8BFBA957
:1015E000FA8B7AA9798BF9A9F88B78A97F877FA5DF
:1015F000FEA5FE87FDA5FD87F0916B24FF2341F139
:101600008D858C838BA59AA529A558A54FA13EA1B0
:101610006DA1BCA0CBA0DAA009A118A1BF8DAE8D91
:10162000AD8CEC8DEC87FB8DFB87EA8DEA87F98D1D
:10163000F987E88DE887FF89FF83EE892D883C884C
:101640004B885A88698878888F84972E7E857E8318
:1016500070916C24772389F08E818C838C859B8597
:101660002A85598548853F816E2FB22CC32CD42CF6
:10167000052D162DB72DA82DA92C70916D2477233B
:1016800041F0AC828B2D9C2D2D2D502F412F3B2FC7
:101690006A2F70916E24772321F06C83852F942F0D
:1016A000232F30916F24332311F02C83892F9091B5
:1016B000702491118C8380915F24882309F499C050
:1016C00081E08D8389E09DE025E06BE05FE047E00D
:1016D00073E030916024332321F07D83862F952F92
:1016E000242F3091A024332311F02D83892F909142
:1016F0009D2491118D8380911E21811158C080916C
:101700001D21811154C080911C21811150C08091F4
:10171000712481111BC380917224811127C3809190
:101720007324811125C380917424811123C3809176
:101730007524811121C38091762481111FC380916A
:10174000772481111DC38091782481111DC380915C
:101750007924811117C380917A2481111BC3809150
:101760007B24811115C380917C24882309F40EC346
:101770009BE0809100208F3F09F4F5C28917B9F0F2
:101780008A3008F4E5C2933008F0E6C281E0809325
:101790001E21909300201092000B1092200B1092AB
:1017A000210B81E080930C0B85E08093000B8091EE
:1017B0000C0B80FF0CC080911C211092000B882321
:1017C00009F4B3C281E080930C0B10921C2180912C
:1017D0001E2190911D21882319F08D8180618D83B8
:1017E000992319F08D8180628D83C7010E94DC15D9
:1017F00041CA88E09CE024E06AE05EE046E072E0F6
:1018000068CF80E890EC20E450EA40EE30E660E2F9
:1018100070E9B72EE0EDCE2EF0E5DF2E00EB10EFF5
:10182000B0E7A0E370E1A72E78E87C87E8ECEB87CF
:10183000F8E4FA8778EA7987E8EEE887F8E6FF8344
:10184000E8E2F8E92F2E78ED372EF8E54F2E78EB09
:10185000572EF8EF6F2E78E7772EF8E38F2E78E18A
:10186000972E78E07E83F4E8FBA774EC7AA7F4E483
:10187000F9A774EA78A7F4EEFFA374E67EA3F4E276
:10188000FDA374E97CA3F4EDFBA374E57AA3F4EB68
:10189000F9A374EF78A3F4E7FF8F74E37E8FF4E18C
:1018A000FD8F7CE87C8FFCECFB8F7CE47A8FFCEA7C
:1018B000F98F7CEE788FFCE6FF8B7CE27E8BFCE977
:1018C000FD8B7CED7C8BFCE5FB8B7CEB7A8BFCEF62
:1018D000F98B7CE7788BFCE3FF877CE1FCE0FE87FB
:1018E000F4E0FD87F2E8AC96FFAFAC97F2ECAB9674
:1018F000FFAFAB97F2E4AA96FFAFAA97F2EAA996D8
:10190000FFAFA997F2EEA896FFAFA897F2E6A796C9
:10191000FFAFA797F2E2A696FFAFA697F2E9A596CA
:10192000FFAFA597F2EDA496FFAFA497F2E5A396BB
:10193000FFAFA397F2EBA296FFAFA297F2EFA196AB
:10194000FFAFA197F2E7A096FFAFA097F2E36F96E3
:10195000FFAF6F97F2E16E96FFAF6E97FAE86D9664
:10196000FFAF6D97FAEC6C96FFAF6C97FAE46B964D
:10197000FFAF6B97FAEA6A96FFAF6A97FAEE69963D
:10198000FFAF6997FAE66896FFAF6897FAE2679645
:10199000FFAF6797FAE96696FFAF6697FAED65962F
:1019A000FFAF6597FAE56496FFAF6497FAEB63962D
:1019B000FFAF6397FAEF6296FFAF6297FAE761961F
:1019C000FFAF6197FAE36096FFAF6097FAE12F9659
:1019D000FFAF2F97FAE02E96FFAF2E97F6E82D96E1
:1019E000FFAF2D97F6EC2C96FFAF2C97F6E42B96D5
:1019F000FFAF2B97F6EA2A96FFAF2A97F6EE2996C5
:101A0000FFAF2997F6E62896FFAF2897F6E22796CC
:101A1000FFAF2797F6E92696FFAF2697F6ED2596B6
:101A2000FFAF2597F6E52496FFAF2497F6EB2396B4
:101A3000FFAF2397F6EF2296FFAF2297F6E72196A6
:101A4000FFAF2197F6E3FFAFF6E1FEAFFEE8FDAF93
:101A5000FEECFCAFFEE4FBAFFEEAFAAFFEEEF9AF40
:101A6000FEE6F8AFFEE2FFABFEE9FEABFEEDFDAB3E
:101A7000FEE5FCABFEEBFBABFEEFFAABFEE7F9AB32
:101A8000FEE3F8ABFEE1FFA7FEE0FEA7F6E0FDA750
:101A9000F2E0FCA7EDCC80E890EC20E450EA40EEC8
:101AA00030E660E2E0E9BE2EF0EDCF2EA0E5DA2EC2
:101AB00000EB10EFB0E7A0E370E1A72E78E87C8799
:101AC000E8ECEB87F8E4FA8778EA7987E8EEE887CC
:101AD000F8E6FF83E8E2F8E92F2E78ED372EF8E5F7
:101AE0004F2E78EB572EF8EF6F2E78E7772EF8E32E
:101AF0008F2E78E1972E78E07E83F4E8FBA774ECD4
:101B00007AA7F4E4F9A774EA78A7F4EEFFA374E6E1
:101B10007EA3F4E2FDA374E97CA3F4EDFBA374E5DA
:101B20007AA3F4EBF9A374EF78A3F4E7FF8F74E3DF
:101B30007E8FF4E1FD8F7CE87C8FFCECFB8F7CE4F6
:101B40007A8FFCEAF98F7CEE788FFCE6FF8B7CE2E3
:101B50007E8BFCE9FD8B7CED7C8BFCE5FB8B7CEBD1
:101B60007A8BFCEFF98B7CE7788BFCE3FF877CE1D9
:101B7000FCE0FE87F4E0FD87F2E8AC96FFAFAC979F
:101B8000F2ECAB96FFAFAB97F2E4AA96FFAFAA9741
:101B9000F2EAA996FFAFA997F2EEA896FFAFA89731
:101BA000F2E6A796FFAFA797F2E2A696FFAFA69739
:101BB000F2E9A596FFAFA597F2EDA496FFAFA49723
:101BC000F2E5A396FFAFA397F2EBA296FFAFA29721
:101BD000F2EFA196FFAFA197F2E7A096FFAFA09713
:101BE000F2E36F96FFAF6F97F2E16E96FFAF6E97DD
:101BF000FAE86D96FFAF6D97FAEC6C96FFAF6C97B5
:101C0000FAE46B96FFAF6B97FAEA6A96FFAF6A97B2
:101C1000FAEE6996FFAF6997FAE66896FFAF6897A4
:101C2000FAE26796FFAF6797FAE96696FFAF6697A5
:101C3000FAED6596FFAF6597FAE56496FFAF649796
:101C4000FAEB6396FFAF6397FAEF6296FFAF629786
:101C5000FAE76196FFAF6197FAE36096FFAF60978E
:101C6000FAE12F96FFAF2F97FAE02E96FFAF2E974F
:101C7000F6E82D96FFAF2D97F6EC2C96FFAF2C973C
:101C8000F6E42B96FFAF2B97F6EA2A96FFAF2A973A
:101C9000F6EE2996FFAF2997F6E62896FFAF28972C
:101CA000F6E22796FFAF2797F6E92696FFAF26972D
:101CB000F6ED2596FFAF2597F6E52496FFAF24971E
:101CC000F6EB2396FFAF2397F6EF2296FFAF22970E
:101CD000F6E72196FFAF2197F6E3FFAFF6E1FEAFFF
:101CE000FEE8FDAFFEECFCAFFEE4FBAFFEEAFAAFB0
:101CF000FEEEF9AFFEE6F8AFFEE2FFABFEE9FEABAB
:101D0000FEEDFDABFEE5FCABFEEBFBABFEEFFAAB95
:101D1000FEE7F9ABFEE3F8ABFEE1FFA7FEE0FEA7AE
:101D2000F6E0FDA7F2E0FCA730C91092200B10925C
:101D3000210B81E080930C0B95E09093000B1092A7
:101D40001E2110921D2180931C214FCD90E011CDBA
:101D5000833010F49A3018F4981708F017CD81E00A
:101D600080931D2116CD9093002021CD91E001CDCF
:101D700092E0FFCC93E0FDCC94E0FBCC95E0F9CC75
:101D800096E0F7CC98E0F5CC97E0F3CC9FEFF1CC60
:101D90009AE0EFCC99E0EDCC0F93CF93DF93809155
:101DA00078008093D9238FEF80937800A895809155
:101DB000820080FDFCCFA8952FB7F8941BBE3BE2B4
:101DC00080E890E0FC0108ED04BF30832FBF109243
:101DD000040680E4809300068FEF8093B00090911A
:101DE0001006977C986190931006109220068093BD
:101DF000B00090913006977C9861909330061092D5
:101E000044069FEB909340068093B000909150065B
:101E1000977C98619093500690E890936006809329
:101E2000B00090917006977C986190937006109224
:101E300080068093B00090919006977C9861909373
:101E400090061092A0068093B0008091B006877C27
:101E500088618093B0061092E007A0910A21B091AA
:101E60000B21A058BF4F2CE702C0215089F08D9163
:101E700087FFFBCF90E0FC01EE0FFF1FE80FF91F7B
:101E8000E450FE4FC591D59184918983215079F713
:101E900081E08093480080E480930001000081E8A5
:101EA00080930001DF91CF910F9108950F932FB789
:101EB000F8941BBEFC0108ED04BF60832FBF0F9197
:101EC0000895EDE7F2E08491C7E0C093A106C093C6
:101ED000A606A6D50E947E055FDF0E94D9010E945A
:101EE000EE058AD4EFD4C093A20078940E9498178C
:101EF0000E94D01FA895A5D180911F21882391F021
:101F000080912421882399F0ECD140E050E064E0F6
:101F100070E08AED94E244D7A89593D180911F2177
:101F20008111EECF80912421882321F3EDCF0E94EF
:101F30001E06809124218823E9F2E6CFCF92DF921A
:101F4000EF92FF920F931F93CF93DF9300D01F92D6
:101F5000CDB7DEB77C018B01FC0180818068FB017D
:101F6000808311826B01F2E0CF0ED11C8EE3F6016B
:101F700011928A95E9F7F70141814F3368F5808125
:101F8000813509F43FC008F44DC0823589F18B35A5
:101F900009F056C084E491E4AFE4BCE489839A83F9
:101FA000AB83BC838091CC01877F8093CC014FE1D0
:101FB00064E070E0CE0101960E949F05FFEF21EEE4
:101FC00084E0F15020408040E1F700C0000061E073
:101FD00089E790E06BDF00002496CDBFDEBFDF9184
:101FE000CF911F910F91FF90EF90DF90CF900895C8
:101FF00082E892E8FB018283938389E998E68483EF
:102000009583EACFF70182818823E9F0813059F185
:10201000833009F16EE370E0C6010E945D26F8018D
:102020008183DACF803561F450E0B7016E5F7F4F76
:10203000C6010E943E26F7018181F8018183CCCF41
:10204000F8011082C9CF4EE350E06BE972E0C6019F
:102050000E942F26DFCF4EE350E06EED74E2C60102
:102060000E944E26D7CF4EE350E066E972E0C601EB
:102070000E942F26CFCF87E4EAEDF3E2DF011D9225
:102080008A95E9F78091080680FD03C091E090935E
:10209000DB2381FD03C091E09093DC2382FD03C02C
:1020A00091E09093DD2383FD03C091E09093DE23C4
:1020B00084FD03C091E09093DF2385FD03C091E090
:1020C0009093E02386FD05C081E0809301248093F6
:1020D00002248091280680FD03C091E09093E123C3
:1020E00081FD03C091E09093E22382FD03C091E063
:1020F0009093E32383FD03C091E09093E42384FD58
:1021000003C091E09093E52385FD03C091E0909397
:10211000E62386FD03C091E09093E72387FD03C08B
:1021200081E08093E8238091480680FD03C091E020
:102130009093FD2381FD03C091E09093FE2382FDE7
:1021400003C091E09093FF2383FD03C081E080935F
:1021500000248091680680FD03C091E090930D24D7
:1021600081FD03C091E090930E2482FD03C091E0B5
:1021700090930F2483FD03C091E09093102484FD7D
:1021800003C091E09093112485FD03C081E080930A
:1021900012248091880680FD03C091E09093F12382
:1021A00081FD03C091E09093F22382FD03C091E092
:1021B0009093F32383FD03C091E09093F42384FD77
:1021C00003C091E09093F52385FD03C091E09093C7
:1021D000F62386FD03C091E09093F72387FD03C0AB
:1021E00081E08093F8238091A80680FD03C091E0F0
:1021F0009093F92381FD03C091E09093FA2382FD2F
:1022000003C091E09093FB2383FD03C091E0909382
:10221000FC2384FD03C091E090931D2485FD03C041
:1022200091E090931E2486FD03C091E090931F24BB
:1022300087FD03C081E08093202481E080935924AE
:102240000895CF93DF9317DF87E4EAE5F4E2DF0137
:102250001D928A95E9F7C0910A21D0910B21DE01E8
:102260001496C058DF4F2CE731E00EC0E82FF0E0A5
:10227000E652FC4D8081882329F0E92FF0E0E65AF0
:10228000FB4D30832150E1F09D919923C9F0899154
:1022900087FFECCFE92FF0E0E65AFB4D90819923C0
:1022A00091F090E0FC01EE0FFF1FE80FF91FE450E2
:1022B000FE4F859195914491FC014583215021F772
:1022C000DF91CF91089590E0FC01EE0FFF1FE80F22
:1022D000F91FE450FE4F859195914491FC0146838E
:1022E000D1CF2F923F924F925F926F927F928F92B7
:1022F0009F92AF92BF92CF92DF92EF92FF920F9395
:102300001F93CF93DF93CDB7DEB7A697CDBFDEBFC8
:102310001092DA241092DB241092DC241092DD2437
:1023200080915B24882309F4A1C181E08093DA24A1
:1023300081E891EC21E451E941ED31E561E1B9E851
:10234000FB2EF9EC09E419E979ED7EA3E9E579E1E1
:10235000A9E0ADA3B5E8BA83A5ECA983B5E4BCA315
:10236000A5E93A2EB5ED4B2EA5E55A2EB5E16B2E1B
:10237000ADE87A2EBDEC8B2EADE49A2EBDE9AB2EE6
:10238000ADEDBA2EBDE5CB2EADE1DA2EBDE0EB2EE4
:10239000A5E0ABA3B3E8BAA3A3ECA9A3B3E4B8A3A5
:1023A000A3E9AF8FB3EDBE8FA3E5AD8FB3E1BC8FD3
:1023B000ABE8AB8FBBECBA8FABE4A98FBBE9B88FAE
:1023C000ABEDAF8BBBE5BE8BABE1AD8BBBE0BC8BAC
:1023D000A7E8AB8BB7ECBA8BA7E4A98BB7E9B88BAE
:1023E000A7EDAF87B7E5BE87A7E1AD87BFE8BC879C
:1023F000AFECAB87BFE4BA87AFE9A987BFEDB88779
:10240000AFE5AF83BFE1BE83AFE0AD83A7E02A2E87
:10241000B3E0A0915C24AA2331F1B093DA248AA11D
:1024200099A128A15F8D4E8D3D8D6C8DFB8CFA8D11
:10243000098D188DBF89BEA3EE897D89EC88EDA238
:10244000AB89AA83BA89B983E988ECA238884F841A
:102450005E846D847C848B849A84A984B884CF80C4
:10246000DE80ED802BA2A0915D24AA2391F07BA1B8
:102470007093DA248A8199812CA1532D442D352D16
:10248000662DF72CF82D092D1A2DBEA2EC2D7D2DD1
:10249000EDA2B0915E24BB2351F08DA18093DA248C
:1024A0008F2D9F2F202F512F4EA13E2F672F7091E0
:1024B0005F24772329F06093DA24852F942F232F2C
:1024C00030916024332319F02093DA24892F9091DE
:1024D000A02491118093DA2480916124882309F447
:1024E000B2C081E090E08093DB249093DC2439E05B
:1024F00020E07DE060E055E040E0ABE0FA2E00E057
:102500001FE0D12CB7E0EB2EB0E0F3E0E0E0A091CB
:102510006224AA2361F0F093DB24E093DC243F2DB6
:10252000202F712F6D2D5E2D4B2F8F2F9E2FE09121
:102530006324EE2339F05093DB244093DC249B0189
:10254000852F942F40916424442331F03093DB2471
:102550002093DC24832F922F20916524222329F0BD
:1025600080618093DB249093DC24209166242223D5
:1025700029F080628093DB249093DC2420916724EF
:10258000222329F080648093DB249093DC24209123
:102590006824222329F080688093DB249093DC2434
:1025A00020916924222329F091608093DB24909369
:1025B000DC2420916A24222329F092608093DB247A
:1025C0009093DC2420916B24222329F09460809343
:1025D000DB249093DC2420916C24222329F0986042
:1025E0008093DB249093DC2420916D24222329F016
:1025F00090618093DB249093DC2420916E2422232D
:1026000029F090628093DB249093DC2420916F2446
:10261000222329F090648093DB249093DC24209182
:102620007024222329F090688093DB249093DC248B
:1026300020919E2421118CC020919F24222309F4F3
:10264000D9C020E286C038E020E07CE060E054E0C1
:1026500040E0EAE0FE2E00E01EE0D12CF6E0EF2E96
:10266000B0E0F2E0E0E080E090E051CF80E890EC74
:1026700020E450E940ED30E560E118E8F12EF8EC97
:1026800008E418E9B8EDBEA3E8E578E1A8E0ADA359
:10269000B4E8BA83A4ECA983B4E4BCA3A4E93A2EB9
:1026A000B4ED4B2EA4E55A2EB4E16B2EACE87A2E95
:1026B000BCEC8B2EACE49A2EBCE9AB2EACEDBA2E62
:1026C000BCE5CB2EACE1DA2EBCE0EB2EA4E0ABA354
:1026D000B2E8BAA3A2ECA9A3B2E4B8A3A2E9AF8F6F
:1026E000B2EDBE8FA2E5AD8FB2E1BC8FAAE8AB8F91
:1026F000BAECBA8FAAE4A98FBAE9B88FAAEDAF8B6A
:10270000BAE5BE8BAAE1AD8BBAE0BC8BA6E8AB8B79
:10271000B6ECBA8BA6E4A98BB6E9B88BA6EDAF8769
:10272000B6E5BE87A6E1AD87BEE8BC87AEECAB8759
:10273000BEE4BA87AEE9A987BEEDB887AEE5AF8340
:10274000BEE1BE83AEE0AD83A6E02A2EB2E061CE4C
:1027500020E18F708093DB249093DC24809171249E
:10276000811146C08FE090917224911181E0909187
:102770007324911182E090917424911183E09091DF
:102780007524911184E090917624911185E09091C7
:102790007724911186E090917824911187E09091AF
:1027A0007924911188E090917A24911189E0909197
:1027B0007B2491118AE090917C2491118BE0822BF3
:1027C0008093DD24A696CDBFDEBFDF91CF911F9110
:1027D0000F91FF90EF90DF90CF90BF90AF909F90C0
:1027E0008F907F906F905F904F903F902F900895C3
:1027F00080E0B9CF20E0B2CF1F93CF93DF93CFED2E
:10280000D4E218E00DC0905DFE01319790838F7087
:102810008A30A8F4805D88831F5F22961E30A9F05D
:10282000812F0E947F01982F92959F709A3058F3C4
:10283000995CFE01319790838F708A3058F3895CE0
:1028400088831F5F22961E3059F78DE28093EA2419
:102850008FE00E947F01982F92959F709A3080F5AB
:10286000905D9093EB248F708A3040F5805D80936B
:10287000EC248DE28093ED24CFEED4E21FE0812F93
:102880000E947F01982F92959F709A30A8F4905DD6
:10289000FE01319790838F708A3060F4805D888369
:1028A0001F5F2296133159F71092F624DF91CF91D2
:1028B0001F910895895CF3CF995CEACF895CD7CFEB
:1028C000995CCFCFE0EBF9E0138294E0948383E04E
:1028D000858316821782E0EBF8E013829483858368
:1028E00016821782848188618483838180638383D5
:1028F00080E4809310010000E0E1F1E0108288EDB7
:10290000828384E090E084839583168280E48093C0
:1029100020010000E0E2F1E0108288ED828384E093
:1029200090E0848395831682E0E0F1E08FE6838B6C
:1029300020EB248F89E0858F168E8BE795E2808FC0
:10294000918F128E8FE483A324A788E085A716A613
:1029500089E395E280A791A712A608951F920F928E
:102960000FB60F9211240BB60F928F939F93EF9394
:10297000FF939091B00980912221813061F118F18B
:102980008230B1F4E091212181E08E0F80932121EA
:10299000F0E0E354FA4D90838091202181508093A0
:1029A0002021811105C08FEF8093232110922221D5
:1029B000FF91EF919F918F910F900BBE0F900FBEE3
:1029C0000F901F901895953599F781E080932221FB
:1029D00010922121EDCFE091212181E08E0F809393
:1029E0002121F0E0E354FA4D9083843008F3809184
:1029F000BF25809320218F33C8F692E09093222147
:102A00008E5F80932021D4CF81E08093242108958C
:102A10001092242181E0089581E0089581E00895D5
:102A20008BEC809352009FB7F8948091500088609F
:102A3000809350009FBF8091510083FFFCCF63E0E3
:102A400080E490E014D79FB7F894809150008E7F77
:102A5000809350009FBF08958630A1F161E080917E
:102A6000510084FD13C08091510083FF1BC09FB7AC
:102A7000F89483EC8093550080915000806180939E
:102A800050009FBF8091510084FFFCCF84E490E010
:102A9000EED69FB7F894809170008F7B8093700082
:102AA0009FBF08958BEC809352009FB7F89480915C
:102AB00050008860809350009FBF8091510083FF39
:102AC000FCCFD5CF69E1CBCF80E0089581E0809342
:102AD000AC2108950F931F931092B0211092AE2154
:102AE00081E08093AC2103EC15E120E430E046E680
:102AF00051E260E082E00E944A21811104C080E03E
:102B00001F910F9108951F910F910C94FE058091D4
:102B1000092690910A268034910509F0089586E2ED
:102B200091E20C9406060C9402062EE935E14CE67F
:102B300050E26EEA71E280EB91E272C030910126C0
:102B400020910226822F90E0039711F080E00895F3
:102B50003111FCCF80910526909106268034910595
:102B6000A9F726E231E2209307263093082627E8CA
:102B700035E120930B2630930C2680930926909301
:102B80000A2681E008950F931F9381110DC06034D0
:102B9000710569F003EC15E120E430E046E651E20E
:102BA00060E082E00E944A211F910F91089586E61D
:102BB00091E20E940606EECF0F931F93CF932091D0
:102BC000AC21211105C080E0CF911F910F91089594
:102BD000CFB7F89425E0E6EAF1E2DF01322F1D924B
:102BE0003A95E9F7FC01A6EAB1E201900D922A9527
:102BF000E1F706E615E125E030E046EA51E260E063
:102C000081E80E944A2191E098279093AC21CFBFA0
:102C10008091AC2191E08927CF911F910F91089568
:102C2000CF93DF931F921F92CDB7DEB7E091FF25C0
:102C3000E7FD19C0E076E03231F080E00F900F90B0
:102C4000DF91CF910895409100264A3009F456C093
:102C50004B3009F446C0493081F7F9010F900F90CD
:102C6000DF91CF911994E076A1F0E03231F7209115
:102C70000026223009F448C02330F9F66093072675
:102C80007093082681E090E08093092690930A26AD
:102C9000D5CF80910026863081F649835A8343D16F
:102CA000FC01228549815A81213239F62091022680
:102CB0002132A9F1FC0137852313BFCF40930726AA
:102CC0005093082620893189809105269091062607
:102CD00028173907A0F18093092690930A2681E0EE
:102CE000ADCF8091052690910626892B09F0A5CFBE
:102CF00080910126FB01808381E0A0CF20910226F4
:102D0000FC01208381E09ACF8093072690930826C8
:102D100081E090E08093092690930A268FCF9C0152
:102D2000275F3F4F20930726309308268185209107
:102D300005263091062690E02817390760F6C9016C
:102D4000CACF8091B22108958091B221813009F0DB
:102D500008955ECEE8D0FC0183818093B22181305A
:102D600011F081E0089550CE8091FF2587FD10C0BD
:102D70008076803411F080E00895809100268111E2
:102D8000FACF8091052690910626892BA1F344CE97
:102D90008076803481F7809100268111ECCF3ECE81
:102DA0000F931F939B018A01AC0160E083E80E94AE
:102DB0004A211F910F910895809101268F770C94DD
:102DC000F21FE091B721F091B8210190F081E02D40
:102DD0009481891728F5E093B521F093B6212281DB
:102DE00033812E0F3F1FE217F30738F019C090818F
:102DF000E90FF11DE217F30778F491819430B9F7E8
:102E000092818913F4CF93819613F1CFE093B5218A
:102E1000F093B62181E00895E093B521F093B621B7
:102E200080E00895FF920F931F93CF93DF93F82EC6
:102E3000E091B721F091B821282F30E0220F331F05
:102E40000280F381E02DE20FF31F00811181D80190
:102E50001696ED91FC91179719959091BA219111C1
:102E600007C080E0DF91CF911F910F91FF900895EF
:102E7000E091B721F091B8210190F081E02D94818B
:102E8000F91678F7E093B521F093B621428153818A
:102E90009F01240F351FE217F30718F7EF0106C053
:102EA0009881C90FD11DC217D30748F59981943075
:102EB000B9F79A81F912F4CF9B818913F1CFC093AE
:102EC000B521D093B621CA018E0F9F1F05C029815D
:102ED000243041F02530C1F02881C20FD11DC81720
:102EE000D907A8F3D8011296ED91FC911397199583
:102EF00081E0DF91CF911F910F91FF900895C093D2
:102F0000B521D093B621ADCF209761F38A810E947D
:102F10007420E091B721F091B8210190F081E02D6B
:102F200082819381D1CF8091B5219091B62108956E
:102F300090C7CF939091BA21992309F444C0E091AE
:102F4000B721F091B821A081B18114968C9114978A
:102F50008823C9F1C0E005C0CF5FC817A0F59091E4
:102F6000BA219923C9F3C817B8F7A093B521B09334
:102F7000B62112962D913C9113972A0F3B1FA21751
:102F8000B30750F7FD0106C09081E90FF11DE2176C
:102F9000F30708F591819430B9F79281C913F4CF02
:102FA00093819111F1CFE093B521F093B6218C2F4D
:102FB00039DFE091B721F091B821A081B181149659
:102FC0008C911497C9CF1092BA211092BE21109201
:102FD000BF21CF910895E093B521F093B621BCCFE6
:102FE000CF938091BA21882379F1A091B721B09134
:102FF000B821ED91FC9111972481222329F1C0E0A1
:103000000DC01995E091B721F091B821A081B1814F
:1030100014962C91CF5FC217B8F4DF018C2F90E08B
:10302000880F991F1296ED91FC911397E80FF91FE5
:103030000190F081E02D0084F185E02D309709F7B3
:10304000FD01CF5FC21748F3CF910895CF92DF9271
:10305000EF92FF920F931F93CF93DF931F92CDB701
:10306000DEB71092092610920A2610920B261092B3
:103070000C2610920D2610920E264091FF2547FD3A
:103080002FC0842F8076B9F5242F2F7109F0F6C058
:1030900080910026833009F4E6C008F41DC1853014
:1030A00009F4EEC1893009F0DEC0809105269091C7
:1030B0000626892B01F599D7882379F0809101267E
:1030C000909102269927E0910120F0910220218918
:1030D00030E02817390708F0B5C24091FF250BC032
:1030E0008091052690910626009709F4BCC0242FF4
:1030F000207609F40CC1242F2F71213009F04CC027
:103100008091BA21882309F4AEC020910326309122
:103110000426F22EA091B721B091B821ED91FC9137
:1031200011978481281708F09EC0E093B521F09391
:10313000B621828193818E0F9F1FE817F90740F017
:1031400092C04081E40FF11DE817F90708F0BFC0F5
:1031500041814430B1F74281F412F3CF43814111F0
:10316000F0CFE093B521F093B6213327220F331F20
:103170001296ED91FC911397E20FF31F00811181DC
:10318000F80186819781FC0119959091BA219111DE
:1031900011C22091FF252F71223009F064C0809167
:1031A000BA21882309F45FC0E091B721F091B821DA
:1031B000A081B18114968C91882309F454C010E049
:1031C000812F90E0880F991F0280F381E02DE80F96
:1031D000F91FE080F180D7011696ED91FC911797C9
:1031E00019959091BA219923F1F1E091B721F091CD
:1031F000B8210190F081E02D94811917A0F5E0939A
:10320000B521F093B621228133812E0F3F1FE217A3
:10321000F30740F028C09081E90FF11DE217F30792
:1032200008F055C091819430B1F792811913F3CF12
:1032300093818913F0CFE093B521F093B621D701A4
:103240001496ED91FC911597199581113EC01F5F61
:10325000E091B721F091B821A081B18114968C91B1
:10326000181708F4ADCF80E00F90DF91CF911F9138
:103270000F91FF90EF90DF90CF900895213009F4E7
:103280005EC0223009F088CF80910026813009F499
:1032900006C1833009F083CF8091052690910626E0
:1032A000892B09F028CF8091012690910226892B45
:1032B00009F021CF809103260E94D9218091032615
:1032C0006FD7F82EFF2009F408CF81E0CDCFE0932F
:1032D000B521F093B621C7CF813029F6809105261C
:1032E00090910626892B09F0BECF809101269091FE
:1032F0000226019709F0B7CF8091BE219091BF219E
:103300008D7F8093BE219093BF2181E0ADCF242F8C
:103310002F7109F099C020910026263009F40EC1C2
:10332000283009F43DC121119ECF029709F09BCFAF
:1033300062E070E08EEB91E25BD681E095CF809108
:1033400000268B3009F0DCCE809105269091062670
:10335000892B09F0D0CE8091BA21882309F4CBCEF5
:103360000091032610910426202F60910126E09100
:10337000B721F091B8210190F081E02D84810817E8
:1033800008F0B9CEE093B521F093B6218281938104
:103390008E0F9F1FE817F90740F0ADCE3081E30F85
:1033A000F11DE817F90708F049C231813430B1F74F
:1033B00032812313F3CF33813111F0CFE093B52164
:1033C000F093B621802F69832DDD6981882309F46C
:1033D00084CE8091BA21882309F47FCE802FF1DC3E
:1033E000882309F47ACEE090B521F090B621E091DF
:1033F000B721F091B821A081B18112968D919C9155
:1034000013978A0F9B1F08C0D70111962C91243067
:1034100051F0253009F409C1D7012C91E20EF11CBD
:10342000E816F90688F31127000F111F0280F381B7
:10343000E02DE00FF11F0190F081E02D808191815E
:10344000FC011995F82E3ECF213009F43BC0223003
:1034500009F0A2CE209100262111A1CE029709F0F9
:103460004ACE8091032681D690E08093B321909339
:10347000B42162E070E083EB91E2BAD581E0F4CE52
:103480008091052690910626892B09F0ECCE8CEDD3
:1034900096E180930B2690930C2681E0E5CE8091F7
:1034A000052690910626892B09F025CE80910126CC
:1034B00090910226892B09F01ECE80910326B3D667
:1034C000F82E00CF209100262A3009F019CE01975E
:1034D00009F011CE8091BA21882309F40CCEC09056
:1034E0000326D09004260091B7211091B821D8016D
:1034F000ED91FC918481C81608F0FDCD60E08C2D23
:1035000060DCF82E882309F4E8CDDD24CC0CDD1C2A
:10351000D8011296ED91FC911397EC0DFD1D0190D1
:10352000F081E02D0680F781E02D19958093BC2174
:1035300061E070E08CEB91E25BD5C4CE2091012676
:1035400030910226832F99278230910509F432C1E8
:103550000CF424C18330910509F44CC10F9709F094
:10356000CACD8091052090910620009709F4C3CD23
:10357000DC0112966D917C9113973AD580910526C6
:10358000909106262091092630910A2682179307EA
:1035900008F09BCE8093092690930A2681E064CEA2
:1035A000019709F060CE61E070E08AEB91E220D5EE
:1035B00081E05ACEE091B721F091B8210190F081DD
:1035C000E02D9481F91608F0E4CDE093B521F09355
:1035D000B621228133812E0F3F1FE217F30738F007
:1035E000D8CD9081E90FF11DE217F307C8F491815E
:1035F0009430B9F79281F912F4CF93818913F1CF06
:10360000E093B521F093B621D80114968D919C9149
:103610001597FC011995882309F4BBCD81E024CED0
:10362000E093B521F093B621B4CDE114F10409F48F
:10363000FACEF7014481558163818281E2D4811100
:10364000D6CE4BCD76DC80910126909102268093D8
:10365000BA21882309F439CE99278150904C880FDC
:10366000991F880F991FA0910320B0910420A80FE3
:10367000B91FA093B721B093B821ED91FC91119798
:103680008481882309F421CEAD0110E0E093B521B7
:10369000F093B621828193818E0F9F1FE817F9075F
:1036A00008F01BCD7F0108C0D7012C91E20EF11C60
:1036B000E816F90608F06DC0D70111962C91119704
:1036C000243091F712962C9112971213EDCF139686
:1036D0002C912111E9CFE092B521F092B62182819F
:1036E00093818E0F9F1FF7012081E20EF11CE816D7
:1036F000F90638F5D70111962C91243061F421C0D8
:10370000D7012C91E20EF11CE816F906D0F4F7016E
:1037100021812430B1F0253099F7E114F10489F0CA
:10372000F70144815581638182816BD4882309F438
:10373000D4CC4091B7215091B821DA01ED91FC91A0
:10374000CECF812F90E0880F991FDA011296ED916C
:10375000FC911397E80FF91F0190F081E02D019083
:10376000F081E02D1995882309F4B7CC1F5FA09153
:10377000B721B091B821ED91FC9111978481181770
:1037800008F0A3CD8091BA21882309F4A6CCAD011D
:103790007DCFE092B521F092B6219FCC019709F040
:1037A000AACC8091012090910220DC016C9170E004
:1037B0001FD4E4CEE0910120F091022081892817E6
:1037C00008F099CC3327220F331F220F331FE091CB
:1037D0000320F0910420E20FF31F80819181FC010E
:1037E0006281738105D4E0910726F091082682E07A
:1037F0008183C4CEC90199278130910589F150F1A7
:103800008230910501F1039709F075CC64E370E013
:1038100034E329E18EED94E2482FAAEBB0E2FC01FB
:10382000819190E08D939D938E2F841B8217C0F31E
:103830003093B82088EB90E2DBD3A0CEE093B521A3
:10384000F093B62158CC66E270E036E222E18CEECD
:1038500090E2E2CF64E070E084E091E2C9D38ECEE2
:103860006AE070E03AE024E08FEF90E2D5CF1BBE33
:10387000FC0128ED24BF608308954091CA01E62F22
:10388000F72F8093CA0184914093CA0108958F92C3
:103890009F92AF92BF92DF92EF92FF920F931F938E
:1038A000CF93DF931F921F92CDB7DEB7D82E282F6C
:1038B0002F70881F8827881F30E0220F331F280FA2
:1038C000311DB901625071094B01880C991C880C9B
:1038D000991C880C991C860E971EA4014F535D4DB0
:1038E0004A01220F331F220F331F220F331F2C597F
:1038F0003C4DD9011196EC91E770E150E73008F0AA
:103900008DC0F0E0EE0FFF1FE45FFE4DE080F18020
:10391000D90181118AC012960D911C911397F4015F
:10392000808182FDDEC0D4011596ED91FC91169741
:10393000E00FF11F1596ED93FC93169713964D919A
:103940005C9114974E175F0708F4BCC0D901169616
:103950008D919C9117978017910701F1BF01F40198
:10396000808180FF4DC0D4018C918E7F8C931796FF
:10397000ED91FC911897309709F442C04D2D80E0ED
:103980000F900F90DF91CF911F910F91FF90EF90CB
:10399000DF90BF90AF909F908F901994E417F50738
:1039A00009F4C3C08A010E1B1F0B0115B4E01B07ED
:1039B00008F4CCC00FEF13E0C801B7010E941B262A
:1039C000081B190BD90112961D921C9213970E1504
:1039D0001F0508F0AEC0F401808184608083F0E4AC
:1039E000DF9EC00111248F579E4D14968D939C939A
:1039F00015971696ED92FC921797F90102E006933F
:103A00000F900F90DF91CF911F910F91FF90EF904A
:103A1000DF90BF90AF909F908F90089598E0E92E2F
:103A2000F12CD901882309F476CF1696ED91FC91FB
:103A30001797D40115968D919C911697E80FF91F51
:103A40001596ED93FC93169713960D911C91149770
:103A5000E017F10709F463C00E1B1F0B0115B4E05A
:103A60001B0740F00FEF13E0C801B7010E941B26AF
:103A7000081B190BD4018C9181FF59C0C801B701F3
:103A80000E941B2641E0892B09F067C0942FD401C6
:103A90008C9190FB81F98C93D90116961D921C9202
:103AA000179712960D931C931397D40111968D912D
:103AB0009C9112978E0F9F1FF9018483958302E0DA
:103AC00006939ECF15964D935C931697F9018681C8
:103AD0009781BA018017910709F041CFD4018C91E9
:103AE00040CFA180B2800580F681E02DD4011396ED
:103AF0008D919C911497B7010E941B26B0E4DB9E28
:103B0000B00111246F577E4DAC01C5018E0F9F1F70
:103B100029833A830E943E263A81298104CFD40129
:103B20008C9181FD1CC0BF011CCFBF01D7CF90E09D
:103B3000AECFD40111968D919C9112978E0F9F1F3D
:103B4000F901848395830683178357CFC801B70192
:103B50000E941B26081B190B35CF40E097CF8D7FA5
:103B60008C93F901168217821282138202E0069367
:103B700047CF0F93CF93DF9380914D23833009F488
:103B800056C02091492330914A23C0910926D091F3
:103B90000A26C21BD30B21F1C034D10508F443C05F
:103BA0001092C021C0E4D0E0C0936E23D0936F2365
:103BB0008091072690910826820F931F809370238F
:103BC000909371232C0F3D1F2093492330934A2358
:103BD000ECE6F3E202E00693DF91CF910F910895B6
:103BE00080914B2390914C23820F931F80934B2302
:103BF00090934C23409105265091062684179507F3
:103C000009F44AC08091C021811146C0E0910D267F
:103C1000F0910E26309739F01995811148C0209106
:103C2000492330914A2381E08093C021BDCFE091A8
:103C30000B26F0910C26309709F019958091C80455
:103C40008F7D8093C8048091C8048F7D8093C804C1
:103C5000ECE6F3E202E0059310926E2310926F23DC
:103C600000E2069300E40693E4E6F3E200E2069342
:103C700000E4069310920B2610920C2610920D264B
:103C800010920E261092092610920A2610924D23A9
:103C9000DF91CF910F91089584E080934D23E4E666
:103CA000F3E202E00693DF91CF910F910895C09166
:103CB0000926D0910A2620E030E06ECF0F93CF93F3
:103CC000DF9300D01F92CDB7DEB781E08093CC04A4
:103CD000E4E6F3E200E806932CE633E2F90100E8BB
:103CE00006938093CA0444E653E2FA0100E1069386
:103CF00080914D23882309F432C08350823008F428
:103D00003CC08091C8048F7D8093C8048091C80412
:103D10008F7D8093C804F90102E0059310926E2311
:103D200010926F23ECE6F3E200E206939F0100E4B9
:103D30000693FA0100E2069344E653E2FA0100E436
:103D4000069310920B2610920C2610920D261092BC
:103D50000E261092092610920A2610924D23809169
:103D60006623909167230897C9F081E02496CDBF20
:103D7000DEBFDF91CF910F910895E0910B26F09176
:103D80000C26309709F4BDCF2B833C8349835A839B
:103D900019955A8149813C812B81B3CF88E0E9E0B4
:103DA000F3E2AFEFB5E201900D928A95E1F78091D1
:103DB000C80480628093C8048091C80480628093A4
:103DC000C8042B833C8349835A8340D92B813C818F
:103DD00049815A818823C9F08091FF2587FD2CC035
:103DE0008091052690910626892BD9F010924B23BD
:103DF00010924C231092492310924A2381E0809321
:103E00004D23FA0102E00693B0CF85E080934D2365
:103E1000EDE6F3E204E00593E5E6F3E204E0059362
:103E2000A4CF83E080934D2310926E2310926F23D2
:103E3000F90102E0069399CF10924B2310924C2384
:103E40001092492310924A2382E080934D2391DE01
:103E50008CCFCF9380E30E942C158091C0048064A6
:103E60008093C004CFB7F8941092652310926D230D
:103E70001092752310927D231092852310928D232A
:103E80001092952310929D231092A5231092AD239A
:103E90008091C1228E7F8093C1228091CA228E7F21
:103EA0008093CA228091D3228E7F8093D3228091E7
:103EB000DC228E7F8093DC228091E5228E7F8093AE
:103EC000E5228091EE228E7F8093EE228091F72270
:103ED0008E7F8093F722809100238E7F8093002332
:103EE0006AE170E082E0C9DC8F3F09F457C080933B
:103EF000FA046BE170E082E0C0DC8F3F09F48FE1EF
:103F00008093FB048091C00484608093C0048091FE
:103F1000C00480688093C0048091C0048061809355
:103F2000C00484E693E28093C6049093C704809112
:103F3000C00480628093C0048FEF8093C504809199
:103F4000C80481608093C8041092B8239FB7F89486
:103F500081E08093B82380E48093CA0480E2809358
:103F6000CA048091C10481608093C1048091C90416
:103F700082608093C9048091C80480648093C804DF
:103F80008091C90481608093C9048091C8048068CD
:103F90008093C8049FBFCFBFCF9108958FE1A7CF73
:103FA0009FB7F89481E08093B823EAECF4E080E4D2
:103FB000808380E28083E1ECF4E080818160808313
:103FC000A9ECB4E08C9182608C93E8ECF4E0808101
:103FD000806480838C9181608C93808180688083F1
:103FE0009FBF08958093C30408958091C3040895EA
:103FF00080930726909308266093092670930A26DB
:104000000895E82FEF70F0E0EE0FFF1F992787FD6E
:1040100090958827990F881F9927E80FF91FEE0FB1
:10402000FF1FEE0FFF1FEE0FFF1FEC59FC4D8181AC
:10403000807C11F080E008956370613009F441C024
:1040400020F1B0E881E8A2E873E864E835E826E802
:1040500097E84038510509F441C000F54032510558
:10406000D9F140345105B1F14031510509F08B2FA0
:10407000118296E0908381838181807C803CD9F09D
:1040800081818062818381E00895B0E481E4A2E4CB
:1040900073E464E435E426E497E4DBCF411582E081
:1040A000580701F14F3F83E05807D1F041155140C7
:1040B000F1F6832FDDCF81818770873009F781E0AA
:1040C0000895B0EC81ECA2EC73EC64EC35EC26ECDA
:1040D00097ECBFCF872FCCCF8A2FCACF862FC8CFE0
:1040E000892FC6CF822FC4CF0F93CF93DF93282F72
:1040F0002F70482F441F4427441F30E0220F331FE6
:10410000240F311DE901CC0FDD1FCC0FDD1FCC0FBB
:10411000DD1FCC59DC4D22503109D901AA0FBB1F3C
:10412000AA0FBB1FAA0FBB1FA20FB31FAF53BD4DDA
:10413000FE0102E005939C9190FF0FC09E7F9C932F
:104140001796ED91FC911897309739F041110AC0FC
:104150006A817B81482F81E019951982DF91CF9187
:104160000F9108956E817F81F5CFE82FEF70F0E019
:10417000EE0FFF1F992787FD90958827990F881FBD
:104180009927E80FF91FEE0FFF1FEE0FFF1FEE0F2D
:10419000FF1FEC59FC4D818182FB882780F908952F
:1041A0000F93282F2F70482F441F4427441F30E0BF
:1041B000220F331F240F311DF901EE0FFF1FEE0FE9
:1041C000FF1FEE0FFF1FEC59FC4D9181946091830E
:1041D00001E0069322503109D901AA0FBB1FAA0F93
:1041E000BB1FAA0FBB1FA20FB31FAF53BD4D02E0F1
:1041F00005939C9190FF11C09E7F9C9317962D91E3
:104200003C9118972115310541F0411109C0628197
:104210007381482F81E0F901199581E00F9108958C
:1042200066817781F6CF282F2F7030E0220F331F61
:10423000992787FD90958827990F881F9927280F20
:10424000391FF901EE0FFF1FEE0FFF1FEE0FFF1FCB
:10425000EC59FC4D818182FF13C081818B7F81836A
:1042600022503109F901EE0FFF1FEE0FFF1FEE0F75
:10427000FF1FE20FF31FEF53FD4D808180FD02C051
:1042800081E008958E7F80830780F085E02D199569
:1042900081E00895EF92FF920F931F93CF93DF93E6
:1042A000F82EE82FEF70E82EEE1CEE24EE1CF0E066
:1042B000EE0FFF1FEE0DF11DEF01CC0FDD1FCC0F38
:1042C000DD1FCC0FDD1FCC59DC4D8981807C09F4CA
:1042D00046C08981807C803C19F0898182FD3FC085
:1042E000DF011297FD01EE0FFF1FEE0FFF1FEE0F14
:1042F000FF1FEA0FFB1FEF53FD4D9FB7F89480811E
:1043000080FD36C0816080839FBF418352832383B9
:104310003483158216820783108791E0611104C0EF
:104320002115310509F090E0808190FB81F98B7FA8
:104330008083E11006C08981807C803C19F11A825B
:104340001B821E821F828F2DA2DAEE24E3948E2D13
:10435000DF91CF911F910F91FF90EF900895E12C85
:104360008E2DDF91CF911F910F91FF90EF900895C7
:104370009FBFE12C8E2DDF91CF911F910F91FF9068
:10438000EF900895A981A770A150A73078F4B0E00C
:10439000AA0FBB1FA45FBE4D6D917C91C9014BD488
:1043A000892B69F280818E7F8083DACF68E070E0AC
:1043B000F5CF0F93CF93DF93282F2F70482F441FF3
:1043C0004427441F30E0220F331F240F311DE90121
:1043D000CC0FDD1FCC0FDD1FCC0FDD1FCC59DC4D0A
:1043E00022503109D901AA0FBB1FAA0FBB1FAA0F68
:1043F000BB1FA20FB31FAF53BD4DFE0102E00593DB
:104400009C9190FF12C09E7F9C931796ED91FC911A
:104410001897309751F041110CC06A817B81482F69
:1044200081E0DF91CF910F911994DF91CF910F919E
:1044300008956E817F81482F81E0DF91CF910F91A8
:1044400019941F920F920FB60F9211240BB60F9270
:10445000CF92DF92EF92FF920F931F932F933F9390
:104460004F935F936F937F938F939F93AF93BF937C
:10447000CF93DF93EF93FF938091CB0487FD49C0E7
:104480008091CB0482FF22C084E08093CA04809193
:104490006C2386FDDBC0FF91EF91DF91CF91BF913F
:1044A000AF919F918F917F916F915F914F913F91CC
:1044B0002F911F910F91FF90EF90DF90CF900F9071
:1044C0000BBE0F900FBE0F901F9018958091CB04DC
:1044D00081FF25C082E08093CA048091642386FF17
:1044E000DACF8091CC0481FDD6CF8091CC0480FDC1
:1044F000C3C080914D23823009F4D2C0833059F675
:10450000EDE6F3E204E00593E5E6F3E204E005936B
:10451000C2CF80E88093CA040E94F017BCCF80917C
:10452000CB0484FF84C080E18093CA0464E7E62E54
:1045300063E2F62EC1ECD2E27CE7C72E73E2D72EFF
:1045400011E0F70102E00593888180FF0EC08E7FA5
:104550008883EF81F885309741F0D70112966D91ED
:104560007C911397412F81E01995F60102E00593A4
:10457000898580FF0FC08E7F8987E889F989309708
:1045800049F0D60116966D917C911797412F40689E
:1045900081E019951F5FB0E1EB0EF11C6296E0E13E
:1045A000CE0ED11C143069F60E9499171092C304E4
:1045B0001092652396E09093642383E480936523AF
:1045C00010926D2390936C2380936D2389E093E286
:1045D00080936823909369238091C8048F7D809392
:1045E000C8048091C8048F7D8093C804ECE6F3E290
:1045F00002E0059310926E2310926F2300E206935F
:1046000000E40693E4E6F3E200E2069300E4069396
:1046100010920B2610920C2610920D2610920E2648
:104620001092092610920A2610924D2334CF8091C1
:10463000CB0486FD1BC08091CB0485FF2CCF80E28C
:104640008093CA0481E08093B82325CF8091CC0465
:1046500081FD21CF8091CC0480FD1EC080914D232F
:10466000813071F0843009F016CF4ACF80E4809316
:10467000CA041092B8230FCF21DB81110CCF39CFA0
:1046800083E080934D2310926E2310926F23ECE60B
:10469000F3E202E00693FFCE11DB8111FCCEDECF08
:1046A00084E080934D23E4E6F3E202E00693F3CE48
:1046B0001F920F920FB60F9211240BB60F92EF922A
:1046C000FF920F931F932F933F934F935F936F939B
:1046D0007F938F939F93AF93BF93CF93DF93EF938A
:1046E000FF938091CC0481FD04C08091CC0480FDB7
:1046F00059C082E08093CC048091C504C4E6D3E223
:104700008195880FFE01E81BF10920813181245633
:104710003342369527953695279536952795822FDE
:10472000869520FD3DC090E0890FE82FEF70F0E006
:10473000EE0FFF1F282F332727FD30952227330F39
:10474000221F3327E20FF31FEE0FFF1FEE0FFF1F95
:10475000EE0FFF1FEC59FC4D908195FF08C000E261
:104760000693882319F1803809F464C090D8FF912A
:10477000EF91DF91CF91BF91AF919F918F917F91F9
:104780006F915F914F913F912F911F910F91FF90EA
:10479000EF900F900BBE0F900FBE0F901F901895CB
:1047A00090E8C2CF8BDA8111E2CFA3CF80914D2365
:1047B000843009F451C0E0906623F09067230091A3
:1047C000092610910A268091492390914A239C0141
:1047D0002E0D3F1D0217130778F18901209107263E
:1047E00030910826A70169E073E2820F931F46D239
:1047F0000093492310934A23F0E4EF16F10409F4DF
:104800005EC00093092610930A26E0910D26F091D0
:104810000E263097A9F01995811112C085E080937A
:104820004D23EDE6F3E204E00593E5E6F3E204E070
:1048300005939DCF9ED99BCF7801E81AF90ACECF78
:1048400083E080934D2310926E2310926F23ECE649
:10485000F3E202E006938BCFE0910B26F0910C2659
:10486000309709F019958091C8048F7D8093C80412
:104870008091C8048F7D8093C804ECE6F3E202E0E7
:10488000059310926E2310926F2300E2069300E4CA
:104890000693FE0100E20693E4E6F3E200E40693E9
:1048A00010920B2610920C2610920D2610920E26B6
:1048B0001092092610920A2610924D2358CF80910B
:1048C0004B2390914C23800F911F2091052630910E
:1048D00006268217930708F094CF809109269091BD
:1048E0000A268017910721F0FE0102E006933FCFD0
:1048F000E0910D26F0910E26309709F48FCF19958F
:10490000882309F48BCF80914B2390914C232091E5
:10491000492330914A23820F931F80934B23909316
:104920004C231092492310924A23DECF0CD0E6C0CC
:10493000DED040F0D5D030F021F45F3F19F0C7C091
:10494000511110C1CAC0EBD098F39923C9F3552374
:10495000B1F3951B550BBB27AA2762177307840772
:1049600038F09F5F5F4F220F331F441FAA1FA9F328
:1049700033D00E2E3AF0E0E830D091505040E6951A
:10498000001CCAF729D0FE2F27D0660F771F881F7B
:10499000BB1F261737074807AB07B0E809F0BB0B6A
:1049A000802DBF01FF2793585F4F2AF09E3F51058E
:1049B00068F08DC0D7C05F3FECF3983EDCF386957E
:1049C00077956795B795F7959F5FC9F7880F911D04
:1049D0009695879597F90895E1E0660F771F881FF0
:1049E000BB1F621773078407BA0720F0621B730BA3
:1049F000840BBA0BEE1F88F7E095089598D088F0E5
:104A00009F5790F0B92F9927B751A0F0D1F0660FBA
:104A1000771F881F991F1AF0BA95C9F712C0B130D5
:104A200081F09FD0B1E008959CC0672F782F882730
:104A3000B85F39F0B93FCCF3869577956795B39514
:104A4000D9F73EF490958095709561957F4F8F4F83
:104A50009F4F0895E89409C097FB3EF49095809588
:104A6000709561957F4F8F4F9F4F9923A9F0F92F34
:104A700096E9BB279395F695879577956795B795B2
:104A8000F111F8CFFAF4BB0F11F460FF1BC06F5F98
:104A90007F4F8F4F9F4F16C0882311F096E911C0AA
:104AA000772321F09EE8872F762F05C0662371F0CB
:104AB00096E8862F70E060E02AF09A95660F771FDF
:104AC000881FDAF7880F9695879597F9089597F9D3
:104AD0009F6780E870E060E008959FEF80EC0895A4
:104AE00000240A94161617061806090608950024CD
:104AF0000A9412161306140605060895092E039447
:104B0000000C11F4882352F0BB0F40F4BF2B11F4BA
:104B100060FF04C06F5F7F4F8F4F9F4F089557FD19
:104B20009058440F551F59F05F3F71F04795880F1B
:104B300097FB991F61F09F3F79F0879508951216B2
:104B400013061406551FF2CF4695F1DF08C016165E
:104B500017061806991FF1CF86957105610508940F
:104B60000895E894BB2766277727CB0197F9089526
:104B70000BD0C4CFB5DF28F0BADF18F0952309F0C9
:104B8000A6CFABCF1124EECFCADFA0F3959FD1F310
:104B9000950F50E0551F629FF001729FBB27F00DEB
:104BA000B11D639FAA27F00DB11DAA1F649F662740
:104BB000B00DA11D661F829F2227B00DA11D621F8F
:104BC000739FB00DA11D621F839FA00D611D221F49
:104BD000749F3327A00D611D231F849F600D211D2D
:104BE000822F762F6A2F11249F5750408AF0E1F0D0
:104BF00088234AF0EE0FFF1FBB1F661F771F881F19
:104C000091505040A9F79E3F510570F060CFAACF58
:104C10005F3FECF3983EDCF3869577956795B79503
:104C2000F795E7959F5FC1F7FE2B880F911D96952D
:104C3000879597F90895AA1BBB1B51E107C0AA1FCE
:104C4000BB1FA617B70710F0A61BB70B881F991F2D
:104C50005A95A9F780959095BC01CD010895FB0167
:104C6000DC014150504048F005900D920020C9F7FA
:104C700001C01D9241505040E0F70895FB01DC0156
:104C800002C001900D9241505040D8F70895DC01C8
:104C900001C06D9341505040E0F70895FB01DC01E5
:104CA0004150504048F001900D920020C9F701C0DA
:104CB0001D9241505040E0F70895FC016150704052
:104CC00001900110D8F7809590958E0F9F1F089541
:044CD000F894FFCF86
:104CD400FF5A200720000010200B20A420AE200043
:104CE40009024900020100803209040000020300A5
:104CF4000000092111010001223800070581034049
:104D04000004070502034000040904010000FFFF3A
:104D1400FF000904010102FFFFFF000705830340B0
:104D24000001070504034000010012010002000015
:104D3400004082829968000101020301050109040F
:104D4400A1010501093009311581257F75089502F6
:104D54008102050919012918150025017501951805
:104D640081020600FF0901150026FF007508954021
:104D7400B102C0006A159315951564150000AA16B2
:104D8400A416B416A11600000003000000000000E1
:104D9400000000000000000000000000000000000F
:104DA40000000000000000000000000000000000FF
:104DB40000000000000000000000000053555045B2
:104DC40052504C4159204A6F79737469636B004B9C
:104DD40045494F000403090400120010100020008C
:0A4DE4004000800000010002FF0300
:00000001FF
